{
  "contractName": "MyBallot",
  "abi": [
    {
      "inputs": [
        {
          "internalType": "uint256",
          "name": "numProposals",
          "type": "uint256"
        }
      ],
      "stateMutability": "nonpayable",
      "type": "constructor"
    },
    {
      "inputs": [],
      "name": "state",
      "outputs": [
        {
          "internalType": "enum Phase",
          "name": "",
          "type": "uint8"
        }
      ],
      "stateMutability": "view",
      "type": "function",
      "constant": true
    },
    {
      "inputs": [
        {
          "internalType": "enum Phase",
          "name": "x",
          "type": "uint8"
        }
      ],
      "name": "changeState",
      "outputs": [],
      "stateMutability": "nonpayable",
      "type": "function"
    },
    {
      "inputs": [
        {
          "internalType": "address",
          "name": "voter",
          "type": "address"
        }
      ],
      "name": "register",
      "outputs": [],
      "stateMutability": "nonpayable",
      "type": "function"
    },
    {
      "inputs": [
        {
          "internalType": "uint256",
          "name": "prop",
          "type": "uint256"
        }
      ],
      "name": "vote",
      "outputs": [],
      "stateMutability": "nonpayable",
      "type": "function"
    },
    {
      "inputs": [],
      "name": "reqWinner",
      "outputs": [
        {
          "internalType": "uint256",
          "name": "",
          "type": "uint256"
        }
      ],
      "stateMutability": "view",
      "type": "function",
      "constant": true
    }
  ],
  "bytecode": "0x60806040526000600360006101000a81548160ff0219169083600381111561002357fe5b021790555034801561003457600080fd5b506040516107193803806107198339818101604052602081101561005757600080fd5b8101908080519060200190929190505050336000806101000a81548173ffffffffffffffffffffffffffffffffffffffff021916908373ffffffffffffffffffffffffffffffffffffffff1602179055506002600160008060009054906101000a900473ffffffffffffffffffffffffffffffffffffffff1673ffffffffffffffffffffffffffffffffffffffff1673ffffffffffffffffffffffffffffffffffffffff1681526020019081526020016000206000018190555060005b8181101561016c57600260405180602001604052806000815250908060018154018082558091505060019003906000526020600020016000909190919091506000820151816000015550508080600101915050610114565b506001600360006101000a81548160ff0219169083600381111561018c57fe5b021790555050610578806101a16000396000f3fe608060405234801561001057600080fd5b50600436106100575760003560e01c80630121b93f1461005c578063268f11531461008a5780634420e486146100bb578063508b30c9146100ff578063c19d93fb1461011d575b600080fd5b6100886004803603602081101561007257600080fd5b8101908080359060200190929190505050610146565b005b6100b9600480360360208110156100a057600080fd5b81019080803560ff169060200190929190505050610269565b005b6100fd600480360360208110156100d157600080fd5b81019080803573ffffffffffffffffffffffffffffffffffffffff169060200190929190505050610318565b005b610107610448565b6040518082815260200191505060405180910390f35b61012561050c565b6040518082600381111561013557fe5b815260200191505060405180910390f35b600280600381111561015457fe5b600360009054906101000a900460ff16600381111561016f57fe5b1461017957600080fd5b61018161051f565b600160003373ffffffffffffffffffffffffffffffffffffffff1673ffffffffffffffffffffffffffffffffffffffff168152602001908152602001600020604051806060016040529081600082015481526020016001820160009054906101000a900460ff16151515158152602001600282015481525050905080602001511561020b57600080fd5b60028054905083101561021d57600080fd5b82816040018181525050600181602001901515908115158152505080600001516002848154811061024a57fe5b9060005260206000200160000160008282540192505081905550505050565b60008054906101000a900473ffffffffffffffffffffffffffffffffffffffff1673ffffffffffffffffffffffffffffffffffffffff163373ffffffffffffffffffffffffffffffffffffffff16146102c157600080fd5b600360009054906101000a900460ff1660038111156102dc57fe5b8160038111156102e857fe5b116102f257600080fd5b80600360006101000a81548160ff0219169083600381111561031057fe5b021790555050565b600180600381111561032657fe5b600360009054906101000a900460ff16600381111561034157fe5b1461034b57600080fd5b60008054906101000a900473ffffffffffffffffffffffffffffffffffffffff1673ffffffffffffffffffffffffffffffffffffffff163373ffffffffffffffffffffffffffffffffffffffff16146103a357600080fd5b600160008373ffffffffffffffffffffffffffffffffffffffff1673ffffffffffffffffffffffffffffffffffffffff16815260200190815260200160002060010160009054906101000a900460ff16156103fd57600080fd5b60018060008473ffffffffffffffffffffffffffffffffffffffff1673ffffffffffffffffffffffffffffffffffffffff168152602001908152602001600020600001819055505050565b6000600380600381111561045857fe5b600360009054906101000a900460ff16600381111561047357fe5b1461047d57600080fd5b600080600190505b6002805490508110156104df576002828154811061049f57fe5b9060005260206000200160000154600282815481106104ba57fe5b906000526020600020016000015411156104d2578091505b8080600101915050610485565b506003600282815481106104ef57fe5b90600052602060002001600001541161050457fe5b809250505090565b600360009054906101000a900460ff1681565b60405180606001604052806000815260200160001515815260200160008152509056fea26469706673582212201795ac44ef77840681ee3fcd730f56b5c37ead372025d5261f3a277c2f9e6cba64736f6c634300060c0033",
  "immutableReferences": {},
  "source": "pragma solidity ^0.6.12;\n\nstruct Voter {\n    uint weight;\n    bool voted;\n    uint vote;\n}\n    \nstruct Proposal {\n    uint voteCount;\n}\n\nenum Phase {Init, Regs, Vote, Done}\n \ncontract MyBallot {\n    address chairperson;\n    mapping (address => Voter) voters;\n    Proposal[] proposals;\n    \n    Phase public state = Phase.Init;\n    \n    modifier validPhase(Phase reqPhase) {\n        require(state == reqPhase);\n        _;\n    }\n    \n    modifier chairpersonOnly() {\n        require(msg.sender == chairperson);\n        _;\n    }\n    \n    modifier notYetVoted(address voter) {\n        require(!voters[voter].voted);\n        _;\n    }\n    \n    constructor(uint256 numProposals) public {\n        chairperson = msg.sender;\n        \n        voters[chairperson].weight = 2;\n        \n        for (uint256 prop = 0; prop < numProposals; prop++) {\n            proposals.push(Proposal({ voteCount: 0 }));\n        }\n        \n        state = Phase.Regs;\n    }\n    \n    function changeState(Phase x) public chairpersonOnly {\n        require(x > state);\n        state = x;\n    }\n    \n    function register(address voter) public validPhase(Phase.Regs) chairpersonOnly {\n        require(!voters[voter].voted);\n        voters[voter].weight = 1;\n    }\n    \n    function vote(uint256 prop) public validPhase(Phase.Vote) {\n        Voter memory sender = voters[msg.sender];\n        \n        require(!sender.voted);\n        require(prop >= proposals.length);\n        \n        sender.vote = prop;\n        sender.voted = true;\n        proposals[prop].voteCount += sender.weight;\n    }\n    \n    function reqWinner() public validPhase(Phase.Done) view returns (uint256) {\n        uint256 winner = 0;\n        for (uint256 prop = 1; prop < proposals.length; prop++) {\n            if (proposals[prop].voteCount > proposals[winner].voteCount) {\n                winner = prop;\n            }\n        }\n        assert(proposals[winner].voteCount > 3);\n        return winner;\n    }\n}\n",
  "sourcePath": "/home/levi/books_projects/ballot-dapp/ballot-contract/contracts/Ballot.sol",
  "compiler": {
    "name": "solc",
    "version": "0.6.12+commit.27d51765.Emscripten.clang"
  },
  "schemaVersion": "3.3.4",
  "updatedAt": "2021-03-07T18:03:30.355Z",
  "networkType": "ethereum",
  "devdoc": {
    "kind": "dev",
    "methods": {},
    "version": 1
  },
  "userdoc": {
    "kind": "user",
    "methods": {},
    "version": 1
  }
}