{
  "contractName": "VideoSharingContract",
  "abi": [
    {
      "inputs": [],
      "stateMutability": "nonpayable",
      "type": "constructor"
    },
    {
      "anonymous": false,
      "inputs": [
        {
          "indexed": true,
          "internalType": "address",
          "name": "owner",
          "type": "address"
        },
        {
          "indexed": true,
          "internalType": "address",
          "name": "spender",
          "type": "address"
        },
        {
          "indexed": false,
          "internalType": "uint256",
          "name": "value",
          "type": "uint256"
        }
      ],
      "name": "Approval",
      "type": "event"
    },
    {
      "anonymous": false,
      "inputs": [
        {
          "indexed": true,
          "internalType": "address",
          "name": "video_liker",
          "type": "address"
        },
        {
          "indexed": true,
          "internalType": "address",
          "name": "video_uploader",
          "type": "address"
        },
        {
          "indexed": false,
          "internalType": "uint256",
          "name": "value",
          "type": "uint256"
        }
      ],
      "name": "LikeVideo",
      "type": "event"
    },
    {
      "anonymous": false,
      "inputs": [
        {
          "indexed": true,
          "internalType": "address",
          "name": "from",
          "type": "address"
        },
        {
          "indexed": true,
          "internalType": "address",
          "name": "to",
          "type": "address"
        },
        {
          "indexed": false,
          "internalType": "uint256",
          "name": "value",
          "type": "uint256"
        }
      ],
      "name": "Transfer",
      "type": "event"
    },
    {
      "anonymous": false,
      "inputs": [
        {
          "indexed": true,
          "internalType": "address",
          "name": "user",
          "type": "address"
        },
        {
          "indexed": false,
          "internalType": "uint256",
          "name": "index",
          "type": "uint256"
        }
      ],
      "name": "UploadVideo",
      "type": "event"
    },
    {
      "inputs": [
        {
          "internalType": "bytes",
          "name": "",
          "type": "bytes"
        }
      ],
      "name": "aggregate_likes",
      "outputs": [
        {
          "internalType": "uint256",
          "name": "",
          "type": "uint256"
        }
      ],
      "stateMutability": "view",
      "type": "function",
      "constant": true
    },
    {
      "inputs": [
        {
          "internalType": "address",
          "name": "",
          "type": "address"
        },
        {
          "internalType": "uint256",
          "name": "",
          "type": "uint256"
        }
      ],
      "name": "all_videos",
      "outputs": [
        {
          "internalType": "bytes",
          "name": "path",
          "type": "bytes"
        },
        {
          "internalType": "bytes20",
          "name": "title",
          "type": "bytes20"
        }
      ],
      "stateMutability": "view",
      "type": "function",
      "constant": true
    },
    {
      "inputs": [
        {
          "internalType": "address",
          "name": "",
          "type": "address"
        },
        {
          "internalType": "address",
          "name": "",
          "type": "address"
        }
      ],
      "name": "allowed",
      "outputs": [
        {
          "internalType": "uint256",
          "name": "",
          "type": "uint256"
        }
      ],
      "stateMutability": "view",
      "type": "function",
      "constant": true
    },
    {
      "inputs": [
        {
          "internalType": "address",
          "name": "",
          "type": "address"
        }
      ],
      "name": "balances",
      "outputs": [
        {
          "internalType": "uint256",
          "name": "",
          "type": "uint256"
        }
      ],
      "stateMutability": "view",
      "type": "function",
      "constant": true
    },
    {
      "inputs": [],
      "name": "decimals",
      "outputs": [
        {
          "internalType": "uint256",
          "name": "",
          "type": "uint256"
        }
      ],
      "stateMutability": "view",
      "type": "function",
      "constant": true
    },
    {
      "inputs": [
        {
          "internalType": "bytes",
          "name": "",
          "type": "bytes"
        }
      ],
      "name": "likes_videos",
      "outputs": [
        {
          "internalType": "bool",
          "name": "",
          "type": "bool"
        }
      ],
      "stateMutability": "view",
      "type": "function",
      "constant": true
    },
    {
      "inputs": [],
      "name": "name",
      "outputs": [
        {
          "internalType": "bytes20",
          "name": "",
          "type": "bytes20"
        }
      ],
      "stateMutability": "view",
      "type": "function",
      "constant": true
    },
    {
      "inputs": [],
      "name": "symbol",
      "outputs": [
        {
          "internalType": "bytes3",
          "name": "",
          "type": "bytes3"
        }
      ],
      "stateMutability": "view",
      "type": "function",
      "constant": true
    },
    {
      "inputs": [],
      "name": "totalSupply",
      "outputs": [
        {
          "internalType": "uint256",
          "name": "",
          "type": "uint256"
        }
      ],
      "stateMutability": "view",
      "type": "function",
      "constant": true
    },
    {
      "inputs": [
        {
          "internalType": "address",
          "name": "",
          "type": "address"
        }
      ],
      "name": "user_videos_index",
      "outputs": [
        {
          "internalType": "uint256",
          "name": "",
          "type": "uint256"
        }
      ],
      "stateMutability": "view",
      "type": "function",
      "constant": true
    },
    {
      "inputs": [
        {
          "internalType": "address",
          "name": "_owner",
          "type": "address"
        }
      ],
      "name": "balanceOf",
      "outputs": [
        {
          "internalType": "uint256",
          "name": "",
          "type": "uint256"
        }
      ],
      "stateMutability": "view",
      "type": "function",
      "constant": true
    },
    {
      "inputs": [
        {
          "internalType": "address",
          "name": "_to",
          "type": "address"
        },
        {
          "internalType": "uint256",
          "name": "_amount",
          "type": "uint256"
        }
      ],
      "name": "transfer",
      "outputs": [
        {
          "internalType": "bool",
          "name": "",
          "type": "bool"
        }
      ],
      "stateMutability": "nonpayable",
      "type": "function"
    },
    {
      "inputs": [
        {
          "internalType": "address",
          "name": "_from",
          "type": "address"
        },
        {
          "internalType": "address",
          "name": "_to",
          "type": "address"
        },
        {
          "internalType": "uint256",
          "name": "_value",
          "type": "uint256"
        }
      ],
      "name": "transferFrom",
      "outputs": [
        {
          "internalType": "bool",
          "name": "",
          "type": "bool"
        }
      ],
      "stateMutability": "nonpayable",
      "type": "function"
    },
    {
      "inputs": [
        {
          "internalType": "address",
          "name": "_spender",
          "type": "address"
        },
        {
          "internalType": "uint256",
          "name": "_amount",
          "type": "uint256"
        }
      ],
      "name": "approve",
      "outputs": [
        {
          "internalType": "bool",
          "name": "",
          "type": "bool"
        }
      ],
      "stateMutability": "nonpayable",
      "type": "function"
    },
    {
      "inputs": [
        {
          "internalType": "address",
          "name": "_owner",
          "type": "address"
        },
        {
          "internalType": "address",
          "name": "_spender",
          "type": "address"
        }
      ],
      "name": "allowance",
      "outputs": [
        {
          "internalType": "uint256",
          "name": "",
          "type": "uint256"
        }
      ],
      "stateMutability": "view",
      "type": "function",
      "constant": true
    },
    {
      "inputs": [
        {
          "internalType": "bytes",
          "name": "_video_path",
          "type": "bytes"
        },
        {
          "internalType": "bytes20",
          "name": "_video_title",
          "type": "bytes20"
        }
      ],
      "name": "uploadVideo",
      "outputs": [
        {
          "internalType": "bool",
          "name": "",
          "type": "bool"
        }
      ],
      "stateMutability": "nonpayable",
      "type": "function"
    },
    {
      "inputs": [
        {
          "internalType": "address",
          "name": "_user",
          "type": "address"
        }
      ],
      "name": "latestVideosIndex",
      "outputs": [
        {
          "internalType": "uint256",
          "name": "",
          "type": "uint256"
        }
      ],
      "stateMutability": "view",
      "type": "function",
      "constant": true
    },
    {
      "inputs": [
        {
          "internalType": "address",
          "name": "_user",
          "type": "address"
        },
        {
          "internalType": "uint256",
          "name": "_index",
          "type": "uint256"
        }
      ],
      "name": "videosPath",
      "outputs": [
        {
          "internalType": "bytes",
          "name": "",
          "type": "bytes"
        }
      ],
      "stateMutability": "view",
      "type": "function",
      "constant": true
    },
    {
      "inputs": [
        {
          "internalType": "address",
          "name": "_user",
          "type": "address"
        },
        {
          "internalType": "uint256",
          "name": "_index",
          "type": "uint256"
        }
      ],
      "name": "videosTitle",
      "outputs": [
        {
          "internalType": "bytes20",
          "name": "",
          "type": "bytes20"
        }
      ],
      "stateMutability": "view",
      "type": "function",
      "constant": true
    },
    {
      "inputs": [
        {
          "internalType": "address",
          "name": "_user",
          "type": "address"
        },
        {
          "internalType": "uint256",
          "name": "_index",
          "type": "uint256"
        }
      ],
      "name": "likeVideo",
      "outputs": [
        {
          "internalType": "bool",
          "name": "",
          "type": "bool"
        }
      ],
      "stateMutability": "payable",
      "type": "function",
      "payable": true
    },
    {
      "inputs": [
        {
          "internalType": "address",
          "name": "_user_like",
          "type": "address"
        },
        {
          "internalType": "address",
          "name": "_user_video",
          "type": "address"
        },
        {
          "internalType": "uint256",
          "name": "",
          "type": "uint256"
        },
        {
          "internalType": "uint256",
          "name": "_index",
          "type": "uint256"
        }
      ],
      "name": "videoHasBeenLiked",
      "outputs": [
        {
          "internalType": "bool",
          "name": "",
          "type": "bool"
        }
      ],
      "stateMutability": "view",
      "type": "function",
      "constant": true
    },
    {
      "inputs": [
        {
          "internalType": "address",
          "name": "_user_video",
          "type": "address"
        },
        {
          "internalType": "uint256",
          "name": "",
          "type": "uint256"
        },
        {
          "internalType": "uint256",
          "name": "_index",
          "type": "uint256"
        }
      ],
      "name": "videoAggregateLikes",
      "outputs": [
        {
          "internalType": "uint256",
          "name": "",
          "type": "uint256"
        }
      ],
      "stateMutability": "view",
      "type": "function",
      "constant": true
    },
    {
      "inputs": [
        {
          "internalType": "bytes",
          "name": "a",
          "type": "bytes"
        },
        {
          "internalType": "bytes",
          "name": "b",
          "type": "bytes"
        }
      ],
      "name": "_concat",
      "outputs": [
        {
          "internalType": "bytes",
          "name": "c",
          "type": "bytes"
        }
      ],
      "stateMutability": "pure",
      "type": "function",
      "constant": true
    }
  ],
  "bytecode": "0x608060405234801561001057600080fd5b5060006101f490506000600390508060038190555080600a0a8202600281905550600254600460003373ffffffffffffffffffffffffffffffffffffffff1673ffffffffffffffffffffffffffffffffffffffff168152602001908152602001600020819055507f566964656f2053686172696e6720436f696e0000000000000000000000000000600160006101000a81548173ffffffffffffffffffffffffffffffffffffffff021916908360601c02179055507f5649440000000000000000000000000000000000000000000000000000000000600160146101000a81548162ffffff021916908360e81c02179055503373ffffffffffffffffffffffffffffffffffffffff16600073ffffffffffffffffffffffffffffffffffffffff167fddf252ad1be2c89b69c2b068fc378daa952ba7f163c4a11628f55a4df523b3ef6002546040518082815260200191505060405180910390a35050611f538061017b6000396000f3fe6080604052600436106101405760003560e01c806359e399ff116100b6578063a9059cbb1161006f578063a9059cbb14610a28578063c7f6721714610a99578063dd62ed3e14610b90578063f3c447ec14610c15578063f5521dcc14610cb0578063f8ae2efe14610d9a57610140565b806359e399ff1461074c5780635c658165146107b05780635ceb47c0146108355780636e8d51f91461089a57806370a082311461097857806395d89b41146109dd57610140565b80631f460c02116101085780631f460c02146102fe57806323b872dd1461037757806327e235e314610408578063313ce5671461046d57806331c681041461049857806351fe8d241461067057610140565b806306fdde031461014557806307e69c261461017f578063095ea7b3146101e4578063115e01211461025557806318160ddd146102d3575b600080fd5b34801561015157600080fd5b5061015a610e6e565b60405180826bffffffffffffffffffffffff1916815260200191505060405180910390f35b34801561018b57600080fd5b506101ce600480360360208110156101a257600080fd5b81019080803573ffffffffffffffffffffffffffffffffffffffff169060200190929190505050610e81565b6040518082815260200191505060405180910390f35b3480156101f057600080fd5b5061023d6004803603604081101561020757600080fd5b81019080803573ffffffffffffffffffffffffffffffffffffffff16906020019092919080359060200190929190505050610ec9565b60405180821515815260200191505060405180910390f35b34801561026157600080fd5b506102ae6004803603604081101561027857600080fd5b81019080803573ffffffffffffffffffffffffffffffffffffffff16906020019092919080359060200190929190505050610fbb565b60405180826bffffffffffffffffffffffff1916815260200191505060405180910390f35b3480156102df57600080fd5b506102e8611026565b6040518082815260200191505060405180910390f35b34801561030a57600080fd5b506103616004803603606081101561032157600080fd5b81019080803573ffffffffffffffffffffffffffffffffffffffff169060200190929190803590602001909291908035906020019092919050505061102c565b6040518082815260200191505060405180910390f35b34801561038357600080fd5b506103f06004803603606081101561039a57600080fd5b81019080803573ffffffffffffffffffffffffffffffffffffffff169060200190929190803573ffffffffffffffffffffffffffffffffffffffff169060200190929190803590602001909291905050506110d6565b60405180821515815260200191505060405180910390f35b34801561041457600080fd5b506104576004803603602081101561042b57600080fd5b81019080803573ffffffffffffffffffffffffffffffffffffffff169060200190929190505050611341565b6040518082815260200191505060405180910390f35b34801561047957600080fd5b50610482611359565b6040518082815260200191505060405180910390f35b3480156104a457600080fd5b506105f5600480360360408110156104bb57600080fd5b81019080803590602001906401000000008111156104d857600080fd5b8201836020820111156104ea57600080fd5b8035906020019184600183028401116401000000008311171561050c57600080fd5b91908080601f016020809104026020016040519081016040528093929190818152602001838380828437600081840152601f19601f8201169050808301925050505050505091929192908035906020019064010000000081111561056f57600080fd5b82018360208201111561058157600080fd5b803590602001918460018302840111640100000000831117156105a357600080fd5b91908080601f016020809104026020016040519081016040528093929190818152602001838380828437600081840152601f19601f82011690508083019250505050505050919291929050505061135f565b6040518080602001828103825283818151815260200191508051906020019080838360005b8381101561063557808201518184015260208101905061061a565b50505050905090810190601f1680156106625780820380516001836020036101000a031916815260200191505b509250505060405180910390f35b34801561067c57600080fd5b506107366004803603602081101561069357600080fd5b81019080803590602001906401000000008111156106b057600080fd5b8201836020820111156106c257600080fd5b803590602001918460018302840111640100000000831117156106e457600080fd5b91908080601f016020809104026020016040519081016040528093929190818152602001838380828437600081840152601f19601f82011690508083019250505050505050919291929050505061140a565b6040518082815260200191505060405180910390f35b6107986004803603604081101561076257600080fd5b81019080803573ffffffffffffffffffffffffffffffffffffffff16906020019092919080359060200190929190505050611438565b60405180821515815260200191505060405180910390f35b3480156107bc57600080fd5b5061081f600480360360408110156107d357600080fd5b81019080803573ffffffffffffffffffffffffffffffffffffffff169060200190929190803573ffffffffffffffffffffffffffffffffffffffff1690602001909291905050506116f4565b6040518082815260200191505060405180910390f35b34801561084157600080fd5b506108846004803603602081101561085857600080fd5b81019080803573ffffffffffffffffffffffffffffffffffffffff169060200190929190505050611719565b6040518082815260200191505060405180910390f35b3480156108a657600080fd5b50610960600480360360208110156108bd57600080fd5b81019080803590602001906401000000008111156108da57600080fd5b8201836020820111156108ec57600080fd5b8035906020019184600183028401116401000000008311171561090e57600080fd5b91908080601f016020809104026020016040519081016040528093929190818152602001838380828437600081840152601f19601f820116905080830192505050505050509192919290505050611731565b60405180821515815260200191505060405180910390f35b34801561098457600080fd5b506109c76004803603602081101561099b57600080fd5b81019080803573ffffffffffffffffffffffffffffffffffffffff169060200190929190505050611767565b6040518082815260200191505060405180910390f35b3480156109e957600080fd5b506109f26117b0565b60405180827cffffffffffffffffffffffffffffffffffffffffffffffffffffffffff1916815260200191505060405180910390f35b348015610a3457600080fd5b50610a8160048036036040811015610a4b57600080fd5b81019080803573ffffffffffffffffffffffffffffffffffffffff169060200190929190803590602001909291905050506117c3565b60405180821515815260200191505060405180910390f35b348015610aa557600080fd5b50610b7860048036036040811015610abc57600080fd5b8101908080359060200190640100000000811115610ad957600080fd5b820183602082011115610aeb57600080fd5b80359060200191846001830284011164010000000083111715610b0d57600080fd5b91908080601f016020809104026020016040519081016040528093929190818152602001838380828437600081840152601f19601f82011690508083019250505050505050919291929080356bffffffffffffffffffffffff191690602001909291905050506117d8565b60405180821515815260200191505060405180910390f35b348015610b9c57600080fd5b50610bff60048036036040811015610bb357600080fd5b81019080803573ffffffffffffffffffffffffffffffffffffffff169060200190929190803573ffffffffffffffffffffffffffffffffffffffff16906020019092919050505061198a565b6040518082815260200191505060405180910390f35b348015610c2157600080fd5b50610c9860048036036080811015610c3857600080fd5b81019080803573ffffffffffffffffffffffffffffffffffffffff169060200190929190803573ffffffffffffffffffffffffffffffffffffffff1690602001909291908035906020019092919080359060200190929190505050611a11565b60405180821515815260200191505060405180910390f35b348015610cbc57600080fd5b50610d0960048036036040811015610cd357600080fd5b81019080803573ffffffffffffffffffffffffffffffffffffffff16906020019092919080359060200190929190505050611ae8565b6040518080602001836bffffffffffffffffffffffff19168152602001828103825284818151815260200191508051906020019080838360005b83811015610d5e578082015181840152602081019050610d43565b50505050905090810190601f168015610d8b5780820380516001836020036101000a031916815260200191505b50935050505060405180910390f35b348015610da657600080fd5b50610df360048036036040811015610dbd57600080fd5b81019080803573ffffffffffffffffffffffffffffffffffffffff16906020019092919080359060200190929190505050611bbe565b6040518080602001828103825283818151815260200191508051906020019080838360005b83811015610e33578082015181840152602081019050610e18565b50505050905090810190601f168015610e605780820380516001836020036101000a031916815260200191505b509250505060405180910390f35b600160009054906101000a900460601b81565b60008060008373ffffffffffffffffffffffffffffffffffffffff1673ffffffffffffffffffffffffffffffffffffffff168152602001908152602001600020549050919050565b600081600560003373ffffffffffffffffffffffffffffffffffffffff1673ffffffffffffffffffffffffffffffffffffffff16815260200190815260200160002060008573ffffffffffffffffffffffffffffffffffffffff1673ffffffffffffffffffffffffffffffffffffffff168152602001908152602001600020819055508273ffffffffffffffffffffffffffffffffffffffff163373ffffffffffffffffffffffffffffffffffffffff167f8c5be1e5ebec7d5bd14f71427d1e84f3dd0314c0f7b2291e5b200ac8c7c3b925846040518082815260200191505060405180910390a36001905092915050565b6000600660008473ffffffffffffffffffffffffffffffffffffffff1673ffffffffffffffffffffffffffffffffffffffff168152602001908152602001600020600083815260200190815260200160002060010160009054906101000a900460601b905092915050565b60025481565b60008061103885611cb4565b905060008360001b9050606061105e61105084611cff565b61105984611cff565b61135f565b90506008816040518082805190602001908083835b602083106110965780518252602082019150602081019050602083039250611073565b6001836020036101000a03801982511681845116808217855250505050505090500191505090815260200160405180910390205493505050509392505050565b6000600560008573ffffffffffffffffffffffffffffffffffffffff1673ffffffffffffffffffffffffffffffffffffffff16815260200190815260200160002060003373ffffffffffffffffffffffffffffffffffffffff1673ffffffffffffffffffffffffffffffffffffffff1681526020019081526020016000205482111561116157600080fd5b600460008573ffffffffffffffffffffffffffffffffffffffff1673ffffffffffffffffffffffffffffffffffffffff168152602001908152602001600020548211156111ad57600080fd5b81600460008673ffffffffffffffffffffffffffffffffffffffff1673ffffffffffffffffffffffffffffffffffffffff1681526020019081526020016000206000828254039250508190555081600560008673ffffffffffffffffffffffffffffffffffffffff1673ffffffffffffffffffffffffffffffffffffffff16815260200190815260200160002060003373ffffffffffffffffffffffffffffffffffffffff1673ffffffffffffffffffffffffffffffffffffffff1681526020019081526020016000206000828254039250508190555081600460008573ffffffffffffffffffffffffffffffffffffffff1673ffffffffffffffffffffffffffffffffffffffff168152602001908152602001600020600082825401925050819055508273ffffffffffffffffffffffffffffffffffffffff168473ffffffffffffffffffffffffffffffffffffffff167fddf252ad1be2c89b69c2b068fc378daa952ba7f163c4a11628f55a4df523b3ef846040518082815260200191505060405180910390a3600190509392505050565b60046020528060005260406000206000915090505481565b60035481565b6060600083519050600083518201905060006020601f8751018161137f57fe5b04905060006020601f8751018161139257fe5b04905060405183815260005b838110156113c557806001016020028901518160010160200283015280600101905061139e565b5060005b828110156113f257806001016020028801518682600101602002018301528060010190506113c9565b50836020018101604052809550505050505092915050565b6008818051602081018201805184825260208301602085012081835280955050505050506000915090505481565b60008061144433611cb4565b9050600061145185611cb4565b905060008460001b9050606061148861146985611cff565b61148361147586611cff565b61147e86611cff565b61135f565b61135f565b905060606114a661149885611cff565b6114a185611cff565b61135f565b90506000808973ffffffffffffffffffffffffffffffffffffffff1673ffffffffffffffffffffffffffffffffffffffff1681526020019081526020016000205487106114f257600080fd5b600015156007836040518082805190602001908083835b6020831061152c5780518252602082019150602081019050602083039250611509565b6001836020036101000a038019825116818451168082178552505050505050905001915050908152602001604051809103902060009054906101000a900460ff1615151461157957600080fd5b60016007836040518082805190602001908083835b602083106115b1578051825260208201915060208101905060208303925061158e565b6001836020036101000a038019825116818451168082178552505050505050905001915050908152602001604051809103902060006101000a81548160ff02191690831515021790555060016008826040518082805190602001908083835b602083106116335780518252602082019150602081019050602083039250611610565b6001836020036101000a03801982511681845116808217855250505050505090500191505090815260200160405180910390206000828254019250508190555061167f33896001611d28565b508773ffffffffffffffffffffffffffffffffffffffff163373ffffffffffffffffffffffffffffffffffffffff167fd36bef164b9617b19d82f8fcdec8d9e92ecdec8ec7758ed303e760d580028c46896040518082815260200191505060405180910390a360019550505050505092915050565b6005602052816000526040600020602052806000526040600020600091509150505481565b60006020528060005260406000206000915090505481565b6007818051602081018201805184825260208301602085012081835280955050505050506000915054906101000a900460ff1681565b6000600460008373ffffffffffffffffffffffffffffffffffffffff1673ffffffffffffffffffffffffffffffffffffffff168152602001908152602001600020549050919050565b600160149054906101000a900460e81b81565b60006117d0338484611d28565b905092915050565b6000806000803373ffffffffffffffffffffffffffffffffffffffff1673ffffffffffffffffffffffffffffffffffffffff1681526020019081526020016000205490506040518060400160405280858152602001846bffffffffffffffffffffffff1916815250600660003373ffffffffffffffffffffffffffffffffffffffff1673ffffffffffffffffffffffffffffffffffffffff168152602001908152602001600020600083815260200190815260200160002060008201518160000190805190602001906118ac929190611e80565b5060208201518160010160006101000a81548173ffffffffffffffffffffffffffffffffffffffff021916908360601c021790555090505060016000803373ffffffffffffffffffffffffffffffffffffffff1673ffffffffffffffffffffffffffffffffffffffff168152602001908152602001600020600082825401925050819055503373ffffffffffffffffffffffffffffffffffffffff167f9457126cc33da5a576a4f66ccf42fb671e5231743e8668960837bacc8e4dba9e826040518082815260200191505060405180910390a2600191505092915050565b6000600560008473ffffffffffffffffffffffffffffffffffffffff1673ffffffffffffffffffffffffffffffffffffffff16815260200190815260200160002060008373ffffffffffffffffffffffffffffffffffffffff1673ffffffffffffffffffffffffffffffffffffffff16815260200190815260200160002054905092915050565b600080611a1d86611cb4565b90506000611a2a86611cb4565b905060008460001b90506060611a61611a4285611cff565b611a5c611a4e86611cff565b611a5786611cff565b61135f565b61135f565b90506007816040518082805190602001908083835b60208310611a995780518252602082019150602081019050602083039250611a76565b6001836020036101000a038019825116818451168082178552505050505050905001915050908152602001604051809103902060009054906101000a900460ff16945050505050949350505050565b600660205281600052604060002060205280600052604060002060009150915050806000018054600181600116156101000203166002900480601f016020809104026020016040519081016040528092919081815260200182805460018160011615610100020316600290048015611ba15780601f10611b7657610100808354040283529160200191611ba1565b820191906000526020600020905b815481529060010190602001808311611b8457829003601f168201915b5050505050908060010160009054906101000a900460601b905082565b6060600660008473ffffffffffffffffffffffffffffffffffffffff1673ffffffffffffffffffffffffffffffffffffffff16815260200190815260200160002060008381526020019081526020016000206000018054600181600116156101000203166002900480601f016020809104026020016040519081016040528092919081815260200182805460018160011615610100020316600290048015611ca75780601f10611c7c57610100808354040283529160200191611ca7565b820191906000526020600020905b815481529060010190602001808311611c8a57829003601f168201915b5050505050905092915050565b600060405173ffffffffffffffffffffffffffffffffffffffff8316925082741400000000000000000000000000000000000000001860148201526034810160405280915050919050565b606081604051602001808281526020019150506040516020818303038152906040529050919050565b600081600460008673ffffffffffffffffffffffffffffffffffffffff1673ffffffffffffffffffffffffffffffffffffffff168152602001908152602001600020541015611d7657600080fd5b81600460008673ffffffffffffffffffffffffffffffffffffffff1673ffffffffffffffffffffffffffffffffffffffff1681526020019081526020016000206000828254039250508190555081600460008573ffffffffffffffffffffffffffffffffffffffff1673ffffffffffffffffffffffffffffffffffffffff168152602001908152602001600020600082825401925050819055508273ffffffffffffffffffffffffffffffffffffffff168473ffffffffffffffffffffffffffffffffffffffff167fddf252ad1be2c89b69c2b068fc378daa952ba7f163c4a11628f55a4df523b3ef846040518082815260200191505060405180910390a3600190509392505050565b828054600181600116156101000203166002900490600052602060002090601f016020900481019282601f10611ec157805160ff1916838001178555611eef565b82800160010185558215611eef579182015b82811115611eee578251825591602001919060010190611ed3565b5b509050611efc9190611f00565b5090565b5b80821115611f19576000816000905550600101611f01565b509056fea2646970667358221220d209539b45fedbcca767703374a78b6c1a26ce5a7224ca5e1ab72475b421251464736f6c634300060c0033",
  "immutableReferences": {},
  "source": "pragma solidity ^0.6.12;\nstruct Video {\n    bytes path; // ipfs path\n    bytes20 title; // title of the file\n}\n\ncontract VideoSharingContract {\n    // ERC20 standards\n    event Transfer(address indexed from, address indexed to, uint256 value); \n    event Approval(address indexed owner, address indexed spender, uint256 value);\n    \n    // triggered when we upload video information\n    event UploadVideo(address indexed user, uint256 index); \n    \n    // triggered when we like a video\n    event LikeVideo(address indexed video_liker, address indexed video_uploader, uint256 value);\n    \n    // tracker of how many videos user has uploaded\n    mapping(address => uint256) public user_videos_index;\n    \n    // ERC20 standars\n    bytes20 public name;\n    bytes3 public symbol;\n    uint256 public totalSupply;\n    uint256 public decimals;\n    mapping(address => uint256) public balances;\n    mapping(address => mapping(address => uint256)) public allowed;\n    \n    // keep all videos from users\n    mapping(address => mapping(uint256 => Video)) public all_videos;\n    \n    // whether certain user liked the video\n    mapping(bytes => bool) public likes_videos;\n    \n    // how many likes this video has already\n    mapping(bytes => uint256) public aggregate_likes;\n    \n    constructor() public {\n        uint256 _initialSupply = 500;\n        uint256 _decimals = 3;\n        \n        decimals = _decimals;\n        totalSupply = _initialSupply * 10 ** _decimals;\n        balances[msg.sender] = totalSupply;\n        name = \"Video Sharing Coin\";\n        symbol = \"VID\";\n        \n        emit Transfer(address(0), msg.sender, totalSupply);\n    }\n    \n    function balanceOf(address _owner) public view returns(uint256) {\n        return balances[_owner];\n    }\n    \n    function transfer(address _to, uint256 _amount) public returns(bool) {\n        return _transfer(msg.sender, _to, _amount);\n    }\n    \n    function transferFrom(address _from, address _to, uint256 _value) public returns(bool) {\n        require(_value <= allowed[_from][msg.sender]);\n        require(_value <= balances[_from]);\n        \n        balances[_from] -= _value;\n        allowed[_from][msg.sender] -= _value;\n        balances[_to] += _value;\n        \n        emit Transfer(_from, _to, _value);\n        \n        return true;\n    }\n    \n    function approve(address _spender, uint256 _amount) public returns(bool) {\n        allowed[msg.sender][_spender] = _amount;\n        \n        emit Approval(msg.sender, _spender, _amount);\n        \n        return true;\n    }\n    \n    function allowance(address _owner, address _spender) public view returns(uint256) {\n        return allowed[_owner][_spender];\n    }\n    \n    function uploadVideo(bytes memory _video_path, bytes20 _video_title) public returns(bool) {\n        uint256 _index = user_videos_index[msg.sender];\n        \n        all_videos[msg.sender][_index] = Video({ path: _video_path, title: _video_title });\n        user_videos_index[msg.sender] += 1;\n        \n        emit UploadVideo(msg.sender, _index);\n        \n        return true;\n    }\n    \n    function latestVideosIndex(address _user) public view returns(uint256) {\n        return user_videos_index[_user];\n    }\n    \n    function videosPath(address _user, uint256 _index) public view returns(bytes memory) {\n        return all_videos[_user][_index].path;\n    }\n    \n    function videosTitle(address _user, uint256 _index) public view returns(bytes20) {\n        return all_videos[_user][_index].title;\n    }\n    \n    function likeVideo(address _user, uint256 _index) public payable returns(bool) {\n        \n        bytes32 _msg_sender_str = _toBytes(msg.sender);\n        bytes32 _user_str = _toBytes(_user);\n        bytes32 _index_str = bytes32(_index);\n        \n        bytes memory _key = _concat(_toBytes(_msg_sender_str),_concat(_toBytes(_user_str), _toBytes(_index_str)));\n        bytes memory _likes_key = _concat(_toBytes(_user_str), _toBytes(_index_str));\n        \n        require(_index < user_videos_index[_user]);\n        require(likes_videos[_key] == false);\n        \n        likes_videos[_key] = true;\n        aggregate_likes[_likes_key] += 1;\n        _transfer(msg.sender, _user, 1);\n        \n        emit LikeVideo(msg.sender, _user, _index);\n        \n        return true;\n    }\n    \n    function videoHasBeenLiked(address _user_like, address _user_video, uint256, uint256 _index) public view returns(bool) {\n        bytes32 _user_like_str = _toBytes(_user_like);\n        bytes32 _user_video_str = _toBytes(_user_video);\n        bytes32 _index_str = bytes32(_index);\n        \n        bytes memory _key = _concat(_toBytes(_user_like_str), _concat(_toBytes(_user_video_str), _toBytes(_index_str)));\n        \n        return likes_videos[_key];\n    }\n    \n    function videoAggregateLikes(address _user_video, uint256, uint256 _index) public view returns(uint256) {\n        bytes32 _user_video_str = _toBytes(_user_video);\n        bytes32 _index_str = bytes32(_index);\n        \n        bytes memory _key = _concat(_toBytes(_user_video_str), _toBytes(_index_str));\n        \n        return aggregate_likes[_key];\n    }\n    \n    function _transfer(address _source, address _to, uint256 _amount) private returns(bool) {\n        require(balances[_source] >= _amount);\n        balances[_source] -= _amount;\n        balances[_to] += _amount;\n        \n        emit Transfer(_source, _to, _amount);\n        \n        return true;\n    }\n    \n    function _toBytes(address a) private pure returns (bytes32 b){\n        assembly {\n            let m := mload(0x40)\n            a := and(a, 0xFFFFFFFFFFFFFFFFFFFFFFFFFFFFFFFFFFFFFFFF)\n            mstore(add(m, 20), xor(0x140000000000000000000000000000000000000000, a))\n            mstore(0x40, add(m, 52))\n            b := m\n       }\n    }\n    \n    function _toBytes(bytes32 _data) private pure returns (bytes memory) {\n        return abi.encodePacked(_data);\n    }\n    \n    function _concat(bytes memory a, bytes memory b) public pure returns (bytes memory c) {\n        uint alen = a.length;\n        uint totallen = alen + b.length;\n        \n        // Count the loops required for array a (sets of 32 bytes)\n        uint loopsa = (a.length + 31) / 32;\n        // Count the loops required for array b (sets of 32 bytes)\n        uint loopsb = (b.length + 31) / 32;\n        \n        assembly {\n            let m := mload(0x40)\n            // Load the length of both arrays to the head of the new bytes array\n            mstore(m, totallen)\n            // Add the contents of a to the array\n            for {  let i := 0 } lt(i, loopsa) { i := add(1, i) } { mstore(add(m, mul(32, add(1, i))), mload(add(a, mul(32, add(1, i))))) }\n            // Add the contents of b to the array\n            for {  let i := 0 } lt(i, loopsb) { i := add(1, i) } { mstore(add(m, add(mul(32, add(1, i)), alen)), mload(add(b, mul(32, add(1, i))))) }\n            mstore(0x40, add(m, add(32, totallen)))\n            c := m\n        }\n    }\n}",
  "sourcePath": "/home/levi/books_projects/ballot-dapp/ballot-contract/contracts/VideoSharing.sol",
  "compiler": {
    "name": "solc",
    "version": "0.6.12+commit.27d51765.Emscripten.clang"
  },
  "schemaVersion": "3.3.4",
  "updatedAt": "2021-03-07T18:03:30.875Z",
  "networkType": "ethereum",
  "devdoc": {
    "kind": "dev",
    "methods": {},
    "version": 1
  },
  "userdoc": {
    "kind": "user",
    "methods": {},
    "version": 1
  }
}